:100000000C9462000C948A000C948A000C948A0070
:100010000C948A000C948A000C948A000C94560369
:100020000C948A000C948A000C948A000C948A0028
:100030000C948A000C948A000C948A000C948A0018
:100040000C940C030C948A000C94DA020C94B40205
:100050000C948A000C948A000C948A000C948A00F8
:100060000C948A000C948A000000000023002600F3
:10007000290000000008000201000003040700003E
:1000800000000000000000000000250028002B00F8
:1000900000000000240027002A00040404040404D3
:1000A0000404020202020202030303030303010227
:1000B00004081020408001020408102001020408F6
:1000C0001020330411241FBECFEFD8E0DEBFCDBF18
:1000D00011E0A0E0B1E0EEEBFDE102C005900D9271
:1000E000A634B107D9F722E0A6E4B1E001C01D9221
:1000F000AE3CB207E1F710E0C2E6D0E004C02197C1
:10010000FE010E94C80EC136D107C9F70E946504DE
:100110000C94DD0E0C940000AF92BF92CF92DF9250
:10012000EF92FF920F931F93CF93DF936C017B01AC
:100130008B01040F151FEB015E01AE18BF08C0173D
:10014000D10759F06991D601ED91FC910190F081B0
:10015000E02DC6010995892B79F7C501DF91CF9173
:100160001F910F91FF90EF90DF90CF90BF90AF90D5
:100170000895FC01538D448D252F30E0842F90E0AD
:10018000821B930B541710F0CF9608950197089592
:10019000FC01918D828D981761F0A28DAE0FBF2F5B
:1001A000B11D5D968C91928D9F5F9F73928F90E0B1
:1001B00008958FEF9FEF0895FC01918D828D981720
:1001C00031F0828DE80FF11D858D90E008958FEF5D
:1001D0009FEF0895FC01918D228D892F90E0805C26
:1001E0009F4F821B91098F73992708958FE591E0A6
:1001F0000E94EA0021E0892B09F420E0822F089573
:1002000080E090E0892B29F00E94F60081110C9487
:1002100000000895FC01A48DA80FB92FB11DA35AA9
:10022000BF4F2C91848D90E001968F739927848F16
:10023000A689B7892C93A089B1898C918370806439
:100240008C93938D848D981306C00288F389E02DDA
:1002500080818F7D80830895EF92FF920F931F938B
:10026000CF93DF93EC0181E0888F9B8D8C8D981369
:100270001AC0E889F989808185FF15C09FB7F89475
:10028000EE89FF896083E889F989808183708064C1
:1002900080839FBF81E090E0DF91CF911F910F910C
:1002A000FF90EF900895F62E0B8D10E00F5F1F4F1B
:1002B0000F731127E02E8C8D8E110CC00FB607FC2A
:1002C000FACFE889F989808185FFF5CFCE010E94B8
:1002D0000A01F1CFEB8DEC0FFD2FF11DE35AFF4F1B
:1002E000F0829FB7F8940B8FEA89FB898081806246
:1002F000CFCFCF93DF93EC01888D8823B9F0AA8903
:10030000BB89E889F9898C9185FD03C0808186FDD0
:100310000DC00FB607FCF7CF8C9185FFF2CF80811F
:1003200085FFEDCFCE010E940A01E9CFDF91CF9189
:100330000895833081F028F4813099F08230A9F05B
:1003400008958730A9F08830C9F08430B1F48091E5
:1003500080008F7D03C0809180008F778093800024
:10036000089584B58F7784BD089584B58F7DFBCFC4
:100370008091B0008F778093B00008958091B00095
:100380008F7DF9CF1F93CF93DF93282F30E0F901B2
:10039000EE58FF4F8491F901E255FF4FD491F901D6
:1003A000E656FF4FC491CC23A9F0162F81110E946D
:1003B0009901EC2FF0E0EE0FFF1FEA57FF4FA591D8
:1003C000B4918FB7F894EC91111108C0D095DE2349
:1003D000DC938FBFDF91CF911F910895DE2BF8CF73
:1003E000CF92DF92EF92FF92CF93DF93EC01072E33
:1003F000000C880B990B0E94380D6B017C0120E0EA
:1004000030E040E45FE30E94E80D20E030E048E4A3
:1004100052E40E948E0C0E94000DC617D707D4F03C
:1004200020E030E040EA5FE3C701B6010E94E80D3A
:1004300020E030E048E452E40E948E0C20E030E0FE
:1004400040E85FE30E941D0C0E94000D21E06C1744
:100450007D070CF420E0822F90E0DF91CF91FF9098
:10046000EF90DF90CF9008958F929F92AF92BF92BE
:10047000CF92DF92EF92FF920F931F93CF93DF9370
:10048000FC0120813181E0915B01F0915C0101E090
:1004900010E02E173F070CF045C0D901AA0FBB1F73
:1004A000E0915901F0915A01EA0FFB1FA080B18041
:1004B0008901009510950170112720FD27C02CE9B6
:1004C0003FEFEA016B017C014901840E951EB401E6
:1004D000C5010E94F00121E030E0892BD1F48C0E9F
:1004E0009D1EB401C5010E94F00122E030E0892B7D
:1004F00081F4BE01680D791DC5010E94F00123E061
:1005000030E0892B31F40FEF1FEF0CC024E630E010
:10051000D8CFF6018081918101968217930784F4E8
:1005200091838083C801DF91CF911F910F91FF903C
:10053000EF90DF90CF90BF90AF909F908F900895F5
:1005400011821082F701808191810196E9CFFC012F
:1005500001900020E9F73197AF01481B590BBC010E
:100560008FE591E00C948C001F920F920FB60F92C2
:1005700011242F933F934F935F936F937F938F93A8
:100580009F93AF93BF93EF93FF938FE591E00E940A
:100590000A01FF91EF91BF91AF919F918F917F9150
:1005A0006F915F914F913F912F910F900FBE0F90E0
:1005B0001F9018951F920F920FB60F9211242F9330
:1005C0008F939F93EF93FF93E0916F01F0917001F0
:1005D0008081E0917501F091760182FD1BC09081D0
:1005E000809178018F5F8F7320917901821741F09C
:1005F000E0917801F0E0E15AFE4F958F8093780109
:10060000FF91EF919F918F912F910F900FBE0F90BF
:100610001F9018958081F4CF1F920F920FB60F9202
:1006200011242F933F938F939F93AF93BF93809108
:100630004B0190914C01A0914D01B0914E01309130
:100640004A0123E0230F2D3758F50196A11DB11D56
:1006500020934A0180934B0190934C01A0934D014C
:10066000B0934E018091460190914701A0914801BD
:10067000B09149010196A11DB11D8093460190934F
:100680004701A0934801B0934901BF91AF919F9159
:100690008F913F912F910F900FBE0F901F90189543
:1006A00026E8230F0296A11DB11DD2CF1F920F92F3
:1006B0000FB60F9211242F933F934F935F936F9335
:1006C0007F938F939F93AF93BF93CF93DF93EF93DA
:1006D000FF932091FD0130E0F901EE58FF4F849126
:1006E000F901E255FF4FD491F901E656FF4FC4914D
:1006F000CC2379F081110E949901EC2FF0E0EE0FEC
:10070000FF1FE859FF4FA591B491EC91ED2381E0D3
:1007100009F480E020910102309102022F5F3F4FE7
:10072000309302022093010290910002953618F056
:1007300096E09093FC019091FC01943009F466C01E
:10074000B8F49230F1F0933009F444C09091FF0175
:10075000992309F46BC081117CC08091FE0188232C
:1007600009F463C08091FE0161E00E94C2015EC095
:10077000953009F457C0963049F791E09093CD0237
:100780004FC08111E3CF2091010230910202243643
:10079000310528F41092020210920102D7CF109274
:1007A000CD0210920002E091000291E09E0F909322
:1007B0000002F0E02091010230910202EE0FFF1FD3
:1007C000E450FE4F308727831092020210920102FC
:1007D00093E019C0813009F0B9CFE091000291E0B7
:1007E0009E0F90930002F0E02091010230910202EE
:1007F000EE0FFF1FE450FE4F308727831092020256
:100800001092010294E09093FC01A0CF882359F24A
:1008100020910102309102022536310508F496CF6D
:1008200095E0F1CF811192CFB5CF2D9AFF91EF9145
:10083000DF91CF91BF91AF919F918F917F916F91F8
:100840005F914F913F912F910F900FBE0F901F908E
:1008500018958091FE01882321F08091FE0160E0CF
:1008600084CF2D98E3CFEFE5F1E01382128288EE7A
:1008700093E0A0E0B0E084839583A683B78384E00F
:1008800091E09183808385EC90E09587848784EC68
:1008900090E09787868780EC90E0918B808B81EC4D
:1008A00090E0938B828B82EC90E0958B848B86EC2E
:1008B00090E0978B868B118E128E138E148EECEF38
:1008C000F1E08BE0818313820895CF93DF93CDB75E
:1008D000DEB7AB970FB6F894DEBF0FBECDBF7894EE
:1008E00084B5826084BD84B5816084BD85B5826035
:1008F00085BD85B5816085BD80916E0081608093E6
:100900006E0010928100809181008260809381004E
:10091000809181008160809381008091800081605E
:10092000809380008091B10084608093B1008091B9
:10093000B00081608093B00080917A0084608093E1
:100940007A0080917A00826080937A0080917A00A8
:10095000816080937A0080917A00806880937A0029
:100960001092C100E0916F01F091700182E08083EC
:10097000E0916B01F0916C011082E0916D01F091BA
:100980006E019FEC908310927701E0917301F091DA
:10099000740196E09083E0917101F0917201908171
:1009A00090619083E0917101F09172019081986063
:1009B0009083E0917101F091720190819068908331
:1009C000E0917101F091720190819F7D9083F89484
:1009D0008093B0008093B10094E69093B30010929E
:1009E000B2008093700078948093FC011092000212
:1009F0008091FD0190E0FC01E255FF4F2491865665
:100A00009F4FFC0184918823C9F090E0880F991FC3
:100A1000FC01E057FF4F45915491FC01EA57FF4F0D
:100A2000A591B4919FB7F894FA0180812095822313
:100A300080838C91E22FE823EC939FBFEBEBF0E0F7
:100A40002491E7EAF0E08491882399F090E0880F00
:100A5000991FFC01E057FF4FA591B491FC01EA57A3
:100A6000FF4F859194918FB7F894EC91E22BEC9322
:100A70008FBF60E08DE00E94C20144244A94542C50
:100A80003201A0E22A2E312C23E032E030935A01C9
:100A9000209359018091000290E090935C01809333
:100AA0005B018091CD0290E090935E0180935D01A7
:100AB0008091FC01853009F08AC2809105029091F5
:100AC0000602885891098D35910508F051C0809132
:100AD0000002843009F58091070290910802809706
:100AE0004797D0F48091090290910A0209970997DB
:100AF00098F410925801109257014092530150926D
:100B00005401609255017092560183E090E09093F9
:100B1000500180934F01FAC180910002843440F16A
:100B20008091070290910802825491098E9700F5F6
:100B300090E080E040E050E0BA01FC01E75FFD4F4B
:100B400020813181295031092930310588F4FC0197
:100B5000E55FFD4F20813181275131092231310577
:100B600010F120813181265031092730310588F17B
:100B7000809100028A3108F461C080910302909153
:100B80000402843F914050F5109258011092570191
:100B90004092530150925401609255017092560157
:100BA0008BE090E0B4CF440F551F661F771F416064
:100BB00004968038910509F6309258012092570129
:100BC0004093530150935401609355017093560123
:100BD0009CCF440F551F661F771FEACF80910502F7
:100BE0009091060285974B9748F5ECEFF1E082E093
:100BF00090E0C12CD12C76019C012F5F3F4F40919A
:100C000000024217130609F00CF4F6C04385548520
:100C1000475051094730510508F0EDC0258536850C
:100C2000235131092F30310508F4D7C02585368589
:100C30002A5031092930310508F4D8C080910002CA
:100C40008A3108F43FC080910302909104028032FF
:100C5000934008F499CF8091050290910602C697BF
:100C6000869780F58091070290910802C697869733
:100C700048F5ECEFF1E083E090E0C12CD12C760157
:100C80009C012F5F3F4F409100024217130609F06D
:100C90000CF4DAC0458556854C5051094B3051054E
:100CA00008F0D1C027853089255231092B31310513
:100CB00008F4BBC0278530892C5031092A30310512
:100CC00008F4BCC080910002823238F180910502A4
:100CD000909106020697079700F5ECEFF1E082E0AD
:100CE00090E040E050E0BA01DC0111962091000252
:100CF0002A171B0609F00CF4D3C0238534852E5126
:100D000031092731310508F4B6C0238534852C50CC
:100D100031092B30310508F4BDC01BA21AA2E1E055
:100D2000F0E0FA83E983809100028D3008F45CC121
:100D300049E753E0BE016E5D7F4FCE0101960E94F0
:100D40003402892B09F050C149E753E0BE016E5DC2
:100D50007F4FCE0101960E943402019709F044C1F1
:100D600049E753E0BE016E5D7F4FCE0101960E94C0
:100D700034028C01892B09F037C1812C912C54014C
:100D80002091000289819A812817190609F00CF434
:100D9000ABC049E753E0BE016E5D7F4FCE010196C7
:100DA0000E9434027C0149E753E0BE016E5D7F4F33
:100DB000CE0101960E943402F1E0EF16F10409F031
:100DC00088C0892B09F010C1880C991CAA1CBB1C77
:100DD000689480F80F5F1F4FD3CFCC0CDD1CEE1C46
:100DE000FF1C6894C0F80296349606CFCC0CDD1C2C
:100DF000EE1CFF1CF8CFC90101979595879590933C
:100E00005801809357010C972CF4109258011092BE
:100E1000570114CFC0925301D0925401E092550172
:100E2000F092560184E090E072CECC0CDD1CEE1CFA
:100E3000FF1C6894C0F80296349622CFCC0CDD1CBF
:100E4000EE1CFF1CF8CFC9010197959587959093EB
:100E50005801809357010C972CF41092580110926E
:100E6000570130CFC0925301D0925401E092550106
:100E7000F092560195CE440F551F661F771F4160B3
:100E8000258536853496235031092530310538F4CF
:100E900002962ACF440F551F661F771FF1CFCD0151
:100EA00001979595879590935801809357014097A6
:100EB0002CF410925801109257012FCF40935301F8
:100EC0005093540160935501709356018CE090E06B
:100ED0001ECEEF2809F088C0019709F085C0880C64
:100EE000991CAA1CBB1C76CF109358010093570184
:100EF0008092530190925401A0925501B0925601F4
:100F000021E030E03093500120934F0182E191E0E5
:100F10000E94A70220915301309154014091550144
:100F20005091560119A28E010F5D1F4FCA01B901E0
:100F30002AE030E040E050E00E94650E605DD8019C
:100F40006E938D01211531054105510579F71097F3
:100F500019F0CD010E94A70283E391E00E94A7024D
:100F60008091530190915401A0915501B091560187
:100F70008D35924AAF4FB10561F486E391E00E944E
:100F8000A70283E391E00E94A70261E08DE00E9446
:100F9000C2018091530190915401A0915501B091EB
:100FA00056018D399246AF4FB10561F48DE391E062
:100FB0000E94A70283E391E00E94A70260E08DE017
:100FC0000E94C20182E08093FC011092000280E046
:100FD00090E0892B09F458CD0E94F600882309F48B
:100FE00050CD0E9400004DCD1BA21AA281E090E0DE
:100FF0009A83898380915B0190915C011816190690
:101000000CF07EC0E0915901F0915A01A2E0B0E0ED
:10101000BA83A9838281938189974E9708F070C023
:1010200083E090E09A838983848195810B970A9766
:1010300008F066C04CEB51E0BE016E5D7F4FCE0103
:1010400001960E9434028C01892B09F059C04CEBA7
:1010500051E0BE016E5D7F4FCE0101960E943402C9
:10106000019709F04DC0812C912C540120915B0116
:1010700030915C0189819A81821793070CF0E2C05C
:101080004CEB51E0BE016E5D7F4FCE0101960E9498
:1010900034027C010330110539F14CEB51E0BE0103
:1010A0006E5D7F4FCE0101960E9434026C010330C9
:1010B000110561F44CEB51E0BE016E5D7F4FCE0136
:1010C00001960E943402C816D906D1F4E114F10445
:1010D00009F4ABC0EA94EF2899F4CD2889F4880C80
:1010E000991CAA1CBB1CABC04CEB51E0BE016E5D51
:1010F0007F4FCE0101960E943402E816F90669F28C
:10110000E0915901F0915A0182819381C6978697A7
:1011100078F5848195814B97459750F5DF011696B8
:101120007F0136ECE30EF11C20E030E040E050E0BF
:1011300060E070E080E090E00D911C911197095003
:10114000110908301105A0F412960D911C91139706
:10115000015111090D30110508F483C012960D914B
:101160001C911397045011090530110508F49EC015
:1011700080910002893380F182819381895791099E
:101180008335910548F584819581CA97899720F523
:101190009F012A5F3F4FC12CD12C760143E050E0E4
:1011A000D9016D917C9111976A507109693071056F
:1011B00098F412966D917C91139766517109613183
:1011C000710508F477C012966D917C916650710993
:1011D0006730710508F49DC080910002823209F0E9
:1011E0009DC0828193810A97099708F097C0A091CA
:1011F0000002B0E0A150B048AA0FBB1FAE0FBF1F46
:101200008D919C910A97099708F088C01092580117
:10121000109257014092530150925401609255012F
:101220007092560186E090E072CCCA94CD2809F005
:1012300067CF880C991CAA1CBB1C689480F80F5FB0
:101240001F4F14CF10935801009357018092530100
:1012500090925401A0925501B092560122E030E0E4
:1012600051CE01E00E94920E21601496AE15BF058A
:1012700009F062CF209353013093540140935501FC
:101280005093560100E20E94AD0E2093510130931D
:10129000520185E090E09093500180934F0180E3EC
:1012A00090E0909358018093570130CE01E00E9466
:1012B000920EDBCFD701C601880F991FAA1FBB1F53
:1012C0006C017D016894C0F84E5F5F4F2C5F3F4F0B
:1012D0004B33510509F064CF9F012A583F4FD90184
:1012E0002D913C912A5031092930310508F074CFF5
:1012F0002CE130E03093580120935701C092530104
:10130000D0925401E0925501F09256018AE090E0AB
:10131000FECBCC0CDD1CEE1CFF1CD6CF8281938152
:10132000895791098335910560F5809100028132DA
:1013300040F184819581CA97899718F59F012A5FAA
:101340003F4FC12CD12C760143E050E0D9016D9183
:101350007C9111976A5071096930710590F4129669
:101360006D917C911397665171096131710580F11E
:1013700012966D917C91665071096730710508F481
:1013800054C0828193818C549109C59708F081C023
:1013900080910002843009F04DC08481958180974E
:1013A000479708F047C0868197810997099708F009
:1013B00041C010925801109257014092530150922F
:1013C0005401609255017092560187E090E09FCBE6
:1013D000D701C601880F991FAA1FBB1F6C017D0191
:1013E0006894C0F84E5F5F4F2C5F3F4F433251050A
:1013F00009F0ACCF9F012A5B3F4FD9012D913C9161
:101400002A5031092930310508F0BBCF20E130E006
:101410003093580120935701C0925301D092540148
:10142000E0925501F0925601FDCECC0CDD1CEE1C75
:10143000FF1CD8CF80910002843458F184819581BB
:1014400089549109C39728F59F012A5F3F4FBF0137
:101450006A577F4FC12CD12C7601D9014D915C91F7
:101460001197495051094930510598F412964D9100
:101470005C911397465151094131510508F4A2C0BE
:1014800012964D915C91465051094730510508F430
:10149000B6C0809100028634C0F1828193810C979E
:1014A0000B9798F5848195810997099770F5868146
:1014B00097818C974F9748F58085918589974D97AF
:1014C00020F59F01265F3F4FC12CD12C760145E0CE
:1014D00050E0D9016D917C9111976C5071096B307E
:1014E000710598F412966D917C9113976E51710964
:1014F0006731710508F488C012966D917C9169502E
:1015000071096930710508F4ACC08091000288351A
:1015100008F4B6C082819381855891098B35910575
:1015200008F0AEC084819581825491098E9708F0AD
:10153000A7C08F01045C1F4F8DE190E030E020E0F8
:10154000409100024450550B8417950714F5A801EB
:1015500042505109DA014D915C914950510948308E
:10156000510508F08DC0BC016F5F7F4FD8014D91D0
:101570005C911197475051094730510508F476C0E6
:101580004D915C91485151094231510508F475C0A3
:10159000CB010197959587959093580180935701BA
:1015A0008A970CF46DC0C901330FAA0BBB0B809353
:1015B000530190935401A0935501B093560189E0D3
:1015C00090E0A5CAD701C601880F991FAA1FBB1FAB
:1015D0006C017D016894C0F82C5F3F4F6217730760
:1015E00009F03BCF3092580120925701C09253012D
:1015F000D0925401E0925501F0925601E6CECC0C07
:10160000DD1CEE1CFF1CE8CFD701C601880F991F17
:10161000AA1FBB1F6C017D016894C0F84E5F5F4F2D
:101620002C5F3F4F4534510509F053CF9F0126579A
:101630003F4FD9012D913C912C5031092B30310570
:1016400008F063CF3092580120925701C0925301A5
:10165000D0925401E0925501F092560188E090E05A
:1016600056CACC0CDD1CEE1CFF1CD8CF220F331F3A
:10167000216002960C5F1F4F63CF220F331FF9CFFB
:1016800080910002803279F58281938106970697D6
:1016900050F5848195810997099728F59F012A5F64
:1016A0003F4FBF01625C7F4FC12CD12C7601D90125
:1016B0004D915C911197465051094630510598F46F
:1016C00012964D915C91139749515109433151053F
:1016D00008F48CC012964D915C91495051094930E3
:1016E000510508F4A4C020915B0130915C013FA337
:1016F0002EA3263031050CF465CC8F010E5F1F4FF1
:1017000085ECC82E8DE9D82E8CE1E82E81E8F82EE4
:1017100083E090E09DA38CA3D80114966D917C91F9
:101720001597AD90BC9090E080E00E94360D68A7C0
:1017300079A78AA79BA7B50190E080E00E94360DAB
:101740004B015C012DEC3CEC4CE45FE30E94E80DA6
:101750009B01AC0168A579A58AA59BA50E94890C6F
:10176000F0E0E0E087FD16C02DEC3CEC4CE45FE3DC
:1017700068A579A58AA59BA50E94E80D9B01AC01EF
:10178000C501B4010E94890CE2E0F0E087FD02C0CF
:10179000E1E0F0E0A701960163E971E080E091E00B
:1017A0000E94550E6F01FF0FEE08FF08C626D726D0
:1017B000E826F926ECA1FDA13196FDA3ECA30E5F6E
:1017C0001F4F2EA13FA12E173F0709F0A5CFC092B2
:1017D0005301D0925401E0925501F092560130929B
:1017E0005801209257018FEF9FEF91C9D701C60191
:1017F000880F991FAA1FBB1F6C017D016894C0F858
:101800002C5F3F4F2617370709F051CF2EE030E00D
:101810003093580120935701C0925301D092540144
:10182000E0925501F09256018FE090E070C9CC0C27
:10183000DD1CEE1CFF1CE4CF5058BB27AA270E94DA
:10184000340C0C94AE0D0E94A00D38F00E94A70D30
:1018500020F039F49F3F19F426F40C949D0D0EF4FA
:10186000E095E7FB0C94970DE92F0E94BF0D58F30C
:10187000BA17620773078407950720F079F4A6F575
:101880000C94E10D0EF4E0950B2EBA2FA02D0B0158
:10189000B90190010C01CA01A0011124FF27591BB5
:1018A00099F0593F50F4503E68F11A16F040A22FBB
:1018B000232F342F4427585FF3CF4695379527952C
:1018C000A795F0405395C9F77EF41F16BA0B620B2B
:1018D000730B840BBAF09150A1F0FF0FBB1F661F72
:1018E000771F881FC2F70EC0BA0F621F731F841FB5
:1018F00048F4879577956795B795F7959E3F08F0DB
:10190000B0CF9395880F08F09927EE0F979587959C
:1019100008950E94730D08F481E008950E94A20CBE
:101920000C94AE0D0E94A70D58F00E94A00D40F03F
:1019300029F45F3F29F00C94970D51110C94E20D9E
:101940000C949D0D0E94BF0D68F39923B1F35523AC
:1019500091F3951B550BBB27AA27621773078407C2
:1019600038F09F5F5F4F220F331F441FAA1FA9F358
:1019700035D00E2E3AF0E0E832D091505040E69546
:10198000001CCAF72BD0FE2F29D0660F771F881FA7
:10199000BB1F261737074807AB07B0E809F0BB0B9A
:1019A000802DBF01FF2793585F4F3AF09E3F5105AE
:1019B00078F00C94970D0C94E20D5F3FE4F3983EA1
:1019C000D4F3869577956795B795F7959F5FC9F797
:1019D000880F911D9695879597F90895E1E0660F18
:1019E000771F881FBB1F621773078407BA0720F091
:1019F000621B730B840BBA0BEE1F88F7E0950895FA
:101A00000E94070D6894B1110C94E20D08950E9494
:101A1000C70D88F09F5798F0B92F9927B751B0F0AC
:101A2000E1F0660F771F881F991F1AF0BA95C9F762
:101A300014C0B13091F00E94E10DB1E008950C9412
:101A4000E10D672F782F8827B85F39F0B93FCCF3C5
:101A5000869577956795B395D9F73EF490958095DF
:101A6000709561957F4F8F4F9F4F0895E89409C0FF
:101A700097FB3EF490958095709561957F4F8F4FC1
:101A80009F4F9923A9F0F92F96E9BB279395F695D7
:101A9000879577956795B795F111F8CFFAF4BB0F55
:101AA00011F460FF1BC06F5F7F4F8F4F9F4F16C0B9
:101AB000882311F096E911C0772321F09EE8872F43
:101AC000762F05C0662371F096E8862F70E060E0FF
:101AD0002AF09A95660F771F881FDAF7880F969578
:101AE000879597F90895990F0008550FAA0BE0E81C
:101AF000FEEF16161706E807F907C0F012161306D0
:101B0000E407F50798F0621B730B840B950B39F40F
:101B10000A2661F0232B242B252B21F408950A2675
:101B200009F4A140A6958FEF811D811D089597F9B5
:101B30009F6780E870E060E008959FEF80EC089573
:101B400000240A941616170618060906089500249C
:101B50000A9412161306140605060895092E039416
:101B6000000C11F4882352F0BB0F40F4BF2B11F48A
:101B700060FF04C06F5F7F4F8F4F9F4F089557FDE9
:101B80009058440F551F59F05F3F71F04795880FEB
:101B900097FB991F61F09F3F79F087950895121682
:101BA00013061406551FF2CF4695F1DF08C016162E
:101BB00017061806991FF1CF8695710561050894DF
:101BC0000895E894BB2766277727CB0197F90895F6
:101BD0000E94FB0D0C94AE0D0E94A00D38F00E94E7
:101BE000A70D20F0952311F00C94970D0C949D0DEA
:101BF00011240C94E20D0E94BF0D70F3959FC1F368
:101C0000950F50E0551F629FF001729FBB27F00DAA
:101C1000B11D639FAA27F00DB11DAA1F649F6627FF
:101C2000B00DA11D661F829F2227B00DA11D621F4E
:101C3000739FB00DA11D621F839FA00D611D221F08
:101C4000749F3327A00D611D231F849F600D211DEC
:101C5000822F762F6A2F11249F5750409AF0F1F06F
:101C600088234AF0EE0FFF1FBB1F661F771F881FD8
:101C700091505040A9F79E3F510580F00C94970D6C
:101C80000C94E20D5F3FE4F3983ED4F3869577958C
:101C90006795B795F795E7959F5FC1F7FE2B880F7E
:101CA000911D9695879597F90895DB018F939F93E2
:101CB0000E94870EBF91AF91A29F800D911DA39F9F
:101CC000900DB29F900D11240895A1E21A2EAA1B27
:101CD000BB1BFD010DC0AA1FBB1FEE1FFF1FA217DC
:101CE000B307E407F50720F0A21BB30BE40BF50BD9
:101CF000661F771F881F991F1A9469F76095709562
:101D0000809590959B01AC01BD01CF0108950E9483
:101D1000CE0EA59F900DB49F900DA49F800D911D98
:101D200011240895002E083090F0982F872F762FD9
:101D3000652F542F432F322F22270850F4CF220F24
:101D4000331F441F551F661F771F881F991F0A9551
:101D5000B2F7002D089597FD1094002E083098F0EA
:101D60000850232F342F452F562F672F782F892F78
:101D7000912DF4CF159497958795779567955795FD
:101D80004795379527950A95AAF71124002D0895B0
:101D9000EE0FFF1F0590F491E02D0994A29FB00172
:101DA000B39FC001A39F700D811D1124911DB29F8F
:0E1DB000700D811D1124911D0895F894FFCF30
:101DBE00000000002C018C00B9007901EA00C80077
:101DCE00DC00E0B8A3E0B8ABE0B8B1E0B8AAE0B888
:101DDE009BE0B8B8E0B988E0B8A1E0B881E0B8946B
:101DEE003A20000D0A004C4544204F4E004C45440D
:061DFE00204F46460000E4
:00000001FF
