:100000000C945E000C9486000C9486000C94860080
:100010000C9486000C9486000C9486000C942D039E
:100020000C9486000C9486000C9486000C94860038
:100030000C9486000C9486000C9486000C94860028
:100040000C9448040C9486000C9416040C94F00351
:100050000C9486000C9486000C9486000C94860008
:100060000C9486000C9486000000000024002700F9
:100070002A0000000008000201000003040700003D
:10008000000000000000010204081020408001026E
:1000900004081020010204081020000000002500C0
:1000A00028002B00040404040404040402020202D5
:1000B00002020303030303030200540511241FBEBD
:1000C000CFEFD8E0DEBFCDBF11E0A0E0B1E0E2EBC2
:1000D000FBE002C005900D92A432B107D9F721E0F0
:1000E000A4E2B1E001C01D92AB3DB207E1F710E020
:1000F000CEE5D0E004C02197FE010E94D105CD35A8
:10010000D107C9F70E9492040C94D7050C94000003
:10011000AF92BF92CF92DF92EF92FF920F931F9315
:10012000CF93DF936C017B018B01040F151FEB0153
:100130005E01AE18BF08C017D10759F06991D6010A
:10014000ED91FC910190F081E02DC6010995892B7C
:1001500079F7C501DF91CF911F910F91FF90EF903B
:10016000DF90CF90BF90AF900895FC01538D448DE8
:10017000252F30E0842F90E0821B930B541710F052
:10018000CF96089501970895FC01918D828D98175F
:1001900061F0A28DAE0FBF2FB11D5D968C91928D37
:1001A0009F5F9F73928F90E008958FEF9FEF089568
:1001B000FC01918D828D981731F0828DE80FF11D31
:1001C000858D90E008958FEF9FEF0895FC01918D4C
:1001D000228D892F90E0805C9F4F821B91098F7345
:1001E000992708958DE291E00E94E60021E0892B95
:1001F00009F420E0822F089580E090E0892B29F017
:100200000E94F20081110C9400000895FC01A48D5D
:10021000A80FB92FB11DA35ABF4F2C91848D90E028
:1002200001968F739927848FA689B7892C93A0890B
:10023000B1898C91837080648C93938D848D981395
:1002400006C00288F389E02D80818F7D8083089528
:10025000EF92FF920F931F93CF93DF93EC0181E016
:10026000888F9B8D8C8D98131AC0E889F9898081BD
:1002700085FF15C09FB7F894EE89FF896083E889F0
:10028000F98980818370806480839FBF81E090E0E2
:10029000DF91CF911F910F91FF90EF900895F62E6F
:1002A0000B8D10E00F5F1F4F0F731127E02E8C8D09
:1002B0008E110CC00FB607FCFACFE889F98980814E
:1002C00085FFF5CFCE010E940601F1CFEB8DEC0F3B
:1002D000FD2FF11DE35AFF4FF0829FB7F8940B8F6B
:1002E000EA89FB8980818062CFCFCF93DF93EC01D5
:1002F000888D8823B9F0AA89BB89E889F9898C910E
:1003000085FD03C0808186FD0DC00FB607FCF7CFC9
:100310008C9185FFF2CF808185FFEDCFCE010E94C9
:100320000601E9CFDF91CF910895CF93DF9390E05D
:10033000FC01EA57FF4F24918C559F4FFC0184919B
:100340008823D1F090E0880F991FFC01E859FF4FF6
:10035000A591B491FC01E656FF4FC591D49161116E
:100360000EC09FB7F8948C91E22FE0958E238C936A
:100370002881E223E8839FBFDF91CF9108958FB753
:10038000F894EC91E22BEC938FBFF6CFCF92DF92F3
:10039000EF92FF920F931F93CF938C0180910001F6
:1003A000883051F08F3F81F1CF911F910F91FF90D5
:1003B000EF90DF90CF900895E8EBF0E0C491C7FD97
:1003C000F3CF61E088E00E949501CC2319F0C230A0
:1003D00009F088C0980150E040E068E478EE81E0E0
:1003E00090E00E94A30569017A0181E0C81AD10852
:1003F000E108F108CC2309F4D1C08091B100887FD5
:1004000084608093B10086C088E080930001E8EBAF
:10041000F0E0C491CF3F41F2C13021F150F0C23041
:1004200009F43EC0C7FDC0CF61E088E00E9495019D
:10043000CECF14BC15BC84B5826084BD85B5816007
:1004400085BDECEAF0E0E491F0E0EE0FFF1FE65628
:10045000FF4F85919491EEE8F0E0E491E093CE01B6
:10046000C0E0AFCF10928000109281008091810097
:1004700088608093810080918100816080938100F9
:10048000ECEAF0E0E491F0E0EE0FFF1FE656FF4FDC
:1004900085919491EEE8F0E0E491E093CD0191CF65
:1004A0001092B0001092B1008091B00082608093F1
:1004B000B0008091B10081608093B100ECEAF0E07F
:1004C000E491F0E0EE0FFF1FE656FF4F8591949107
:1004D0009093CC018093CB01EEE8F0E0E491E093BF
:1004E000CA016FCF980150E040E060E072E18AE716
:1004F00090E00E94A30569017A0181E0C81AD10841
:10050000E108F108C13031F480918100887F816079
:10051000809381009801220F331FA0E2B3E00E9474
:10052000C20528EE33E040E050E00E948105C13072
:1005300099F0C23019F1C11137CFC7BC2093D70150
:100540003093D8014093D9015093DA0180916E0025
:10055000826080936E0028CFD0928900C09288007C
:100560002093D3013093D4014093D5015093D60109
:1005700080916F00826080936F0016CFC092B300AD
:100580002093CF013093D0014093D1015093D201F9
:100590008091700082608093700006CF85B5887F5F
:1005A000836085BDB7CF3FB7F894809129019091C2
:1005B0002A01A0912B01B0912C0126B5A89B05C062
:1005C0002F3F19F00196A11DB11D3FBFBA2FA92FD2
:1005D000982F8827BC01CD01620F711D811D911DCF
:1005E00042E0660F771F881F991F4A95D1F708953B
:1005F0008F929F92AF92BF92CF92DF92EF92FF9233
:100600000E94D3024B015C0188ECC82ED12CE12C56
:10061000F12C0E94D302681979098A099B09683E66
:10062000734081059105A8F321E0C21AD108E108C1
:10063000F10888EE880E83E0981EA11CB11CC1143D
:10064000D104E104F10429F7FF90EF90DF90CF90FF
:10065000BF90AF909F908F9008951F920F920FB60A
:100660000F9211242F933F938F939F93AF93BF9338
:10067000EF93FF938091CF019091D001A091D10190
:10068000B091D201892B8A2B8B2BB1F19091CA01A9
:10069000E091CB01F091CC0180818927808380910A
:1006A000CF019091D001A091D101B091D201181643
:1006B00019061A061B069CF48091CF019091D00177
:1006C000A091D101B091D2010197A109B109809304
:1006D000CF019093D001A093D101B093D201FF91AB
:1006E000EF91BF91AF919F918F913F912F910F907B
:1006F0000FBE0F901F90189580910001E8EBF0E07D
:10070000E4919FEF90930001E13009F431C068F16A
:10071000E23009F433C090E0FC01EE58FF4F249121
:10072000FC01EA57FF4F3491FC01EC55FF4FE49177
:10073000EE23A9F2222351F0233009F43AC078F5D0
:10074000213009F43CC0223009F43DC0F0E0EE0F46
:10075000FF1FE656FF4FA591B4918FB7F894EC9127
:1007600030953E233C938FBFBACF10926E00D3CF0B
:1007700090916F009D7F90936F00CDCF909170000E
:100780009D7F9093700091E09093B0009091B100A4
:10079000987F94609093B1001092B300BCCF273043
:1007A000A9F02830C9F0243089F6809180008F7D2F
:1007B00003C0809180008F7780938000C7CF84B57D
:1007C0008F7784BDC3CF84B58F7DFBCF8091B00080
:1007D0008F778093B000BACF8091B0008F7DF9CF32
:1007E0001F920F920FB60F9211242F933F934F93A6
:1007F0005F936F937F938F939F93AF93BF93EF9389
:10080000FF938DE291E00E940601FF91EF91BF916D
:10081000AF919F918F917F916F915F914F913F9198
:100820002F910F900FBE0F901F9018951F920F924F
:100830000FB60F9211242F938F939F93EF93FF93F3
:10084000E0913D01F0913E018081E0914301F09102
:10085000440182FD1BC09081809146018F5F8F73A0
:1008600020914701821741F0E0914601F0E0E35DFD
:10087000FE4F958F80934601FF91EF919F918F914D
:100880002F910F900FBE0F901F9018958081F4CF7D
:100890001F920F920FB60F9211242F933F938F93B5
:1008A0009F93AF93BF938091250190912601A091D2
:1008B0002701B09128013091240123E0230F2D3727
:1008C00058F50196A11DB11D2093240180932501A7
:1008D00090932601A0932701B093280180912901CC
:1008E00090912A01A0912B01B0912C010196A11D9C
:1008F000B11D8093290190932A01A0932B01B093FD
:100900002C01BF91AF919F918F913F912F910F90AB
:100910000FBE0F901F90189526E8230F0296A11D79
:10092000B11DD2CF789484B5826084BD84B58160D6
:1009300084BD85B5826085BD85B5816085BD8091AA
:100940006E00816080936E00109281008091810022
:10095000826080938100809181008160809381001A
:10096000809180008160809380008091B1008460DC
:100970008093B1008091B00081608093B00080913D
:100980007A00846080937A0080917A0082608093FC
:100990007A0080917A00816080937A0080917A0059
:1009A000806880937A001092C100E0913D01F0913F
:1009B0003E0182E08083E0913901F0913A0110829A
:1009C000E0913B01F0913C018FEC80831092450156
:1009D000E0914101F091420186E08083E0913F0186
:1009E000F0914001808180618083E0913F01F0912E
:1009F0004001808188608083E0913F01F091400157
:100A0000808180688083E0913F01F0914001808186
:100A10008F7D808361E088E00E94950160E08EE038
:100A20000E94950110E480E0E82E80E0F82E1093FB
:100A30007C0080917A00806480937A0080917A00B3
:100A400086FDFCCF80917800C0917900DC2FC82F03
:100A5000C333D105B4F080E293E00E94C6010E9446
:100A6000F80288E592E00E94C6010E94F802E114B3
:100A7000F104E9F20E94F2008823C9F20E9400000A
:100A8000D6CF4CE050E063E171E08DE291E00E944E
:100A9000880042E050E060E271E08DE291E00E9467
:100AA0008800E29721F7D7CFEDE2F1E013821282BE
:100AB00088EE93E0A0E0B0E084839583A683B783BB
:100AC00085E091E09183808385EC90E09587848731
:100AD00084EC90E09787868780EC90E0918B808B08
:100AE00081EC90E0938B828B82EC90E0958B848BF1
:100AF00086EC90E0978B868B118E128E138E148E5F
:100B00000895A1E21A2EAA1BBB1BFD010DC0AA1F4E
:100B1000BB1FEE1FFF1FA217B307E407F50720F066
:100B2000A21BB30BE40BF50B661F771F881F991FE1
:100B30001A9469F760957095809590959B01AC012A
:100B4000BD01CF010895052E97FB1EF400940E946D
:100B5000BA0557FD07D00E94810507FC03D04EF46B
:100B60000C94BA0550954095309521953F4F4F4FC5
:100B70005F4F089590958095709561957F4F8F4F49
:100B80009F4F0895A29FB001B39FC001A39F700D16
:100B9000811D1124911DB29F700D811D1124911D85
:100BA0000895EE0FFF1F0590F491E02D0994F8943D
:020BB000FFCF75
:100BB200FF0000000028018800B5007501E600C4AE
:100BC20000D8006B6F6B6F646169796F2020310010
:040BD2000D0A000008
:00000001FF
